{
  "contracts/MyContract.sol": {
    "MyContract": {
      "abi": [
        {
          "inputs": [
            {
              "internalType": "string",
              "name": "_name",
              "type": "string"
            }
          ],
          "stateMutability": "nonpayable",
          "type": "constructor"
        },
        {
          "inputs": [
            {
              "internalType": "string",
              "name": "_name",
              "type": "string"
            }
          ],
          "name": "changeName",
          "outputs": [],
          "stateMutability": "nonpayable",
          "type": "function"
        },
        {
          "inputs": [],
          "name": "getName",
          "outputs": [
            {
              "internalType": "string",
              "name": "",
              "type": "string"
            }
          ],
          "stateMutability": "view",
          "type": "function"
        }
      ],
      "evm": {
        "bytecode": {
          "linkReferences": {},
          "object": "60806040523480156200001157600080fd5b50604051620009bc380380620009bc833981810160405281019062000037919062000343565b6200006b7fe3edaab583b6fc2562c5ac310d7b0f82e5ed87cf85161ca7893d3f50884b285c60001b620000f360201b60201c565b6200009f7fa6ce600d6bf2721d7a6c78f323b14ce0283fd3bc85f8da6cca2715730259c7bf60001b620000f360201b60201c565b620000d37fe25b45a4f28c5a5d1eb45f2a85aa2e04cf1d82ad8e4a2ed1e143fd4125560fbf60001b620000f360201b60201c565b8060009080519060200190620000eb929190620000f6565b5050620003f9565b50565b8280546200010490620003c3565b90600052602060002090601f01602090048101928262000128576000855562000174565b82601f106200014357805160ff191683800117855562000174565b8280016001018555821562000174579182015b828111156200017357825182559160200191906001019062000156565b5b50905062000183919062000187565b5090565b5b80821115620001a257600081600090555060010162000188565b5090565b6000604051905090565b600080fd5b600080fd5b600080fd5b600080fd5b6000601f19601f8301169050919050565b7f4e487b7100000000000000000000000000000000000000000000000000000000600052604160045260246000fd5b6200020f82620001c4565b810181811067ffffffffffffffff82111715620002315762000230620001d5565b5b80604052505050565b600062000246620001a6565b905062000254828262000204565b919050565b600067ffffffffffffffff821115620002775762000276620001d5565b5b6200028282620001c4565b9050602081019050919050565b60005b83811015620002af57808201518184015260208101905062000292565b83811115620002bf576000848401525b50505050565b6000620002dc620002d68462000259565b6200023a565b905082815260208101848484011115620002fb57620002fa620001bf565b5b620003088482856200028f565b509392505050565b600082601f830112620003285762000327620001ba565b5b81516200033a848260208601620002c5565b91505092915050565b6000602082840312156200035c576200035b620001b0565b5b600082015167ffffffffffffffff8111156200037d576200037c620001b5565b5b6200038b8482850162000310565b91505092915050565b7f4e487b7100000000000000000000000000000000000000000000000000000000600052602260045260246000fd5b60006002820490506001821680620003dc57607f821691505b60208210811415620003f357620003f262000394565b5b50919050565b6105b380620004096000396000f3fe608060405234801561001057600080fd5b50600436106100365760003560e01c806317d7de7c1461003b5780635353a2d814610059575b600080fd5b610043610075565b6040516100509190610368565b60405180910390f35b610073600480360381019061006e91906104d3565b61018b565b005b60606100a37f3eaede775cdfb112666232fb37e21f174044897685583597bbba050f5b6d3f6860001b610229565b6100cf7fdebeb5d842deaa5a99eb711cca8174c1627aa1414f934a1dd2956c7b30a2d60660001b610229565b6100fb7f3bcea2a397f04e14fe9516e76495f43e7bcf924fdfd249668c0374f39d09e92e60001b610229565b600080546101089061054b565b80601f01602080910402602001604051908101604052809291908181526020018280546101349061054b565b80156101815780601f1061015657610100808354040283529160200191610181565b820191906000526020600020905b81548152906001019060200180831161016457829003601f168201915b5050505050905090565b6101b77fd0f4262543f36652bb09a98490a740a11f39d5f5aa94213499870be5b0a4478260001b610229565b6101e37f635222e40b4c535a57f55af7d7366bcc034af7daa05a13de5e3009a4d5af222360001b610229565b61020f7f9bfa6c06d4c4f11c3ada763f6a2dbaa0897b152378462d551aa57da4ed803de760001b610229565b806000908051906020019061022592919061022c565b5050565b50565b8280546102389061054b565b90600052602060002090601f01602090048101928261025a57600085556102a1565b82601f1061027357805160ff19168380011785556102a1565b828001600101855582156102a1579182015b828111156102a0578251825591602001919060010190610285565b5b5090506102ae91906102b2565b5090565b5b808211156102cb5760008160009055506001016102b3565b5090565b600081519050919050565b600082825260208201905092915050565b60005b838110156103095780820151818401526020810190506102ee565b83811115610318576000848401525b50505050565b6000601f19601f8301169050919050565b600061033a826102cf565b61034481856102da565b93506103548185602086016102eb565b61035d8161031e565b840191505092915050565b60006020820190508181036000830152610382818461032f565b905092915050565b6000604051905090565b600080fd5b600080fd5b600080fd5b600080fd5b7f4e487b7100000000000000000000000000000000000000000000000000000000600052604160045260246000fd5b6103e08261031e565b810181811067ffffffffffffffff821117156103ff576103fe6103a8565b5b80604052505050565b600061041261038a565b905061041e82826103d7565b919050565b600067ffffffffffffffff82111561043e5761043d6103a8565b5b6104478261031e565b9050602081019050919050565b82818337600083830152505050565b600061047661047184610423565b610408565b905082815260208101848484011115610492576104916103a3565b5b61049d848285610454565b509392505050565b600082601f8301126104ba576104b961039e565b5b81356104ca848260208601610463565b91505092915050565b6000602082840312156104e9576104e8610394565b5b600082013567ffffffffffffffff81111561050757610506610399565b5b610513848285016104a5565b91505092915050565b7f4e487b7100000000000000000000000000000000000000000000000000000000600052602260045260246000fd5b6000600282049050600182168061056357607f821691505b602082108114156105775761057661051c565b5b5091905056fea2646970667358221220e8b4ffbe779546bbffc4ae1baf2eeb54305295c5a746b4b63fe33fd04f69236664736f6c63430008090033",
          "opcodes": "PUSH1 0x80 PUSH1 0x40 MSTORE CALLVALUE DUP1 ISZERO PUSH3 0x11 JUMPI PUSH1 0x0 DUP1 REVERT JUMPDEST POP PUSH1 0x40 MLOAD PUSH3 0x9BC CODESIZE SUB DUP1 PUSH3 0x9BC DUP4 CODECOPY DUP2 DUP2 ADD PUSH1 0x40 MSTORE DUP2 ADD SWAP1 PUSH3 0x37 SWAP2 SWAP1 PUSH3 0x343 JUMP JUMPDEST PUSH3 0x6B PUSH32 0xE3EDAAB583B6FC2562C5AC310D7B0F82E5ED87CF85161CA7893D3F50884B285C PUSH1 0x0 SHL PUSH3 0xF3 PUSH1 0x20 SHL PUSH1 0x20 SHR JUMP JUMPDEST PUSH3 0x9F PUSH32 0xA6CE600D6BF2721D7A6C78F323B14CE0283FD3BC85F8DA6CCA2715730259C7BF PUSH1 0x0 SHL PUSH3 0xF3 PUSH1 0x20 SHL PUSH1 0x20 SHR JUMP JUMPDEST PUSH3 0xD3 PUSH32 0xE25B45A4F28C5A5D1EB45F2A85AA2E04CF1D82AD8E4A2ED1E143FD4125560FBF PUSH1 0x0 SHL PUSH3 0xF3 PUSH1 0x20 SHL PUSH1 0x20 SHR JUMP JUMPDEST DUP1 PUSH1 0x0 SWAP1 DUP1 MLOAD SWAP1 PUSH1 0x20 ADD SWAP1 PUSH3 0xEB SWAP3 SWAP2 SWAP1 PUSH3 0xF6 JUMP JUMPDEST POP POP PUSH3 0x3F9 JUMP JUMPDEST POP JUMP JUMPDEST DUP3 DUP1 SLOAD PUSH3 0x104 SWAP1 PUSH3 0x3C3 JUMP JUMPDEST SWAP1 PUSH1 0x0 MSTORE PUSH1 0x20 PUSH1 0x0 KECCAK256 SWAP1 PUSH1 0x1F ADD PUSH1 0x20 SWAP1 DIV DUP2 ADD SWAP3 DUP3 PUSH3 0x128 JUMPI PUSH1 0x0 DUP6 SSTORE PUSH3 0x174 JUMP JUMPDEST DUP3 PUSH1 0x1F LT PUSH3 0x143 JUMPI DUP1 MLOAD PUSH1 0xFF NOT AND DUP4 DUP1 ADD OR DUP6 SSTORE PUSH3 0x174 JUMP JUMPDEST DUP3 DUP1 ADD PUSH1 0x1 ADD DUP6 SSTORE DUP3 ISZERO PUSH3 0x174 JUMPI SWAP2 DUP3 ADD JUMPDEST DUP3 DUP2 GT ISZERO PUSH3 0x173 JUMPI DUP3 MLOAD DUP3 SSTORE SWAP2 PUSH1 0x20 ADD SWAP2 SWAP1 PUSH1 0x1 ADD SWAP1 PUSH3 0x156 JUMP JUMPDEST JUMPDEST POP SWAP1 POP PUSH3 0x183 SWAP2 SWAP1 PUSH3 0x187 JUMP JUMPDEST POP SWAP1 JUMP JUMPDEST JUMPDEST DUP1 DUP3 GT ISZERO PUSH3 0x1A2 JUMPI PUSH1 0x0 DUP2 PUSH1 0x0 SWAP1 SSTORE POP PUSH1 0x1 ADD PUSH3 0x188 JUMP JUMPDEST POP SWAP1 JUMP JUMPDEST PUSH1 0x0 PUSH1 0x40 MLOAD SWAP1 POP SWAP1 JUMP JUMPDEST PUSH1 0x0 DUP1 REVERT JUMPDEST PUSH1 0x0 DUP1 REVERT JUMPDEST PUSH1 0x0 DUP1 REVERT JUMPDEST PUSH1 0x0 DUP1 REVERT JUMPDEST PUSH1 0x0 PUSH1 0x1F NOT PUSH1 0x1F DUP4 ADD AND SWAP1 POP SWAP2 SWAP1 POP JUMP JUMPDEST PUSH32 0x4E487B7100000000000000000000000000000000000000000000000000000000 PUSH1 0x0 MSTORE PUSH1 0x41 PUSH1 0x4 MSTORE PUSH1 0x24 PUSH1 0x0 REVERT JUMPDEST PUSH3 0x20F DUP3 PUSH3 0x1C4 JUMP JUMPDEST DUP2 ADD DUP2 DUP2 LT PUSH8 0xFFFFFFFFFFFFFFFF DUP3 GT OR ISZERO PUSH3 0x231 JUMPI PUSH3 0x230 PUSH3 0x1D5 JUMP JUMPDEST JUMPDEST DUP1 PUSH1 0x40 MSTORE POP POP POP JUMP JUMPDEST PUSH1 0x0 PUSH3 0x246 PUSH3 0x1A6 JUMP JUMPDEST SWAP1 POP PUSH3 0x254 DUP3 DUP3 PUSH3 0x204 JUMP JUMPDEST SWAP2 SWAP1 POP JUMP JUMPDEST PUSH1 0x0 PUSH8 0xFFFFFFFFFFFFFFFF DUP3 GT ISZERO PUSH3 0x277 JUMPI PUSH3 0x276 PUSH3 0x1D5 JUMP JUMPDEST JUMPDEST PUSH3 0x282 DUP3 PUSH3 0x1C4 JUMP JUMPDEST SWAP1 POP PUSH1 0x20 DUP2 ADD SWAP1 POP SWAP2 SWAP1 POP JUMP JUMPDEST PUSH1 0x0 JUMPDEST DUP4 DUP2 LT ISZERO PUSH3 0x2AF JUMPI DUP1 DUP3 ADD MLOAD DUP2 DUP5 ADD MSTORE PUSH1 0x20 DUP2 ADD SWAP1 POP PUSH3 0x292 JUMP JUMPDEST DUP4 DUP2 GT ISZERO PUSH3 0x2BF JUMPI PUSH1 0x0 DUP5 DUP5 ADD MSTORE JUMPDEST POP POP POP POP JUMP JUMPDEST PUSH1 0x0 PUSH3 0x2DC PUSH3 0x2D6 DUP5 PUSH3 0x259 JUMP JUMPDEST PUSH3 0x23A JUMP JUMPDEST SWAP1 POP DUP3 DUP2 MSTORE PUSH1 0x20 DUP2 ADD DUP5 DUP5 DUP5 ADD GT ISZERO PUSH3 0x2FB JUMPI PUSH3 0x2FA PUSH3 0x1BF JUMP JUMPDEST JUMPDEST PUSH3 0x308 DUP5 DUP3 DUP6 PUSH3 0x28F JUMP JUMPDEST POP SWAP4 SWAP3 POP POP POP JUMP JUMPDEST PUSH1 0x0 DUP3 PUSH1 0x1F DUP4 ADD SLT PUSH3 0x328 JUMPI PUSH3 0x327 PUSH3 0x1BA JUMP JUMPDEST JUMPDEST DUP2 MLOAD PUSH3 0x33A DUP5 DUP3 PUSH1 0x20 DUP7 ADD PUSH3 0x2C5 JUMP JUMPDEST SWAP2 POP POP SWAP3 SWAP2 POP POP JUMP JUMPDEST PUSH1 0x0 PUSH1 0x20 DUP3 DUP5 SUB SLT ISZERO PUSH3 0x35C JUMPI PUSH3 0x35B PUSH3 0x1B0 JUMP JUMPDEST JUMPDEST PUSH1 0x0 DUP3 ADD MLOAD PUSH8 0xFFFFFFFFFFFFFFFF DUP2 GT ISZERO PUSH3 0x37D JUMPI PUSH3 0x37C PUSH3 0x1B5 JUMP JUMPDEST JUMPDEST PUSH3 0x38B DUP5 DUP3 DUP6 ADD PUSH3 0x310 JUMP JUMPDEST SWAP2 POP POP SWAP3 SWAP2 POP POP JUMP JUMPDEST PUSH32 0x4E487B7100000000000000000000000000000000000000000000000000000000 PUSH1 0x0 MSTORE PUSH1 0x22 PUSH1 0x4 MSTORE PUSH1 0x24 PUSH1 0x0 REVERT JUMPDEST PUSH1 0x0 PUSH1 0x2 DUP3 DIV SWAP1 POP PUSH1 0x1 DUP3 AND DUP1 PUSH3 0x3DC JUMPI PUSH1 0x7F DUP3 AND SWAP2 POP JUMPDEST PUSH1 0x20 DUP3 LT DUP2 EQ ISZERO PUSH3 0x3F3 JUMPI PUSH3 0x3F2 PUSH3 0x394 JUMP JUMPDEST JUMPDEST POP SWAP2 SWAP1 POP JUMP JUMPDEST PUSH2 0x5B3 DUP1 PUSH3 0x409 PUSH1 0x0 CODECOPY PUSH1 0x0 RETURN INVALID PUSH1 0x80 PUSH1 0x40 MSTORE CALLVALUE DUP1 ISZERO PUSH2 0x10 JUMPI PUSH1 0x0 DUP1 REVERT JUMPDEST POP PUSH1 0x4 CALLDATASIZE LT PUSH2 0x36 JUMPI PUSH1 0x0 CALLDATALOAD PUSH1 0xE0 SHR DUP1 PUSH4 0x17D7DE7C EQ PUSH2 0x3B JUMPI DUP1 PUSH4 0x5353A2D8 EQ PUSH2 0x59 JUMPI JUMPDEST PUSH1 0x0 DUP1 REVERT JUMPDEST PUSH2 0x43 PUSH2 0x75 JUMP JUMPDEST PUSH1 0x40 MLOAD PUSH2 0x50 SWAP2 SWAP1 PUSH2 0x368 JUMP JUMPDEST PUSH1 0x40 MLOAD DUP1 SWAP2 SUB SWAP1 RETURN JUMPDEST PUSH2 0x73 PUSH1 0x4 DUP1 CALLDATASIZE SUB DUP2 ADD SWAP1 PUSH2 0x6E SWAP2 SWAP1 PUSH2 0x4D3 JUMP JUMPDEST PUSH2 0x18B JUMP JUMPDEST STOP JUMPDEST PUSH1 0x60 PUSH2 0xA3 PUSH32 0x3EAEDE775CDFB112666232FB37E21F174044897685583597BBBA050F5B6D3F68 PUSH1 0x0 SHL PUSH2 0x229 JUMP JUMPDEST PUSH2 0xCF PUSH32 0xDEBEB5D842DEAA5A99EB711CCA8174C1627AA1414F934A1DD2956C7B30A2D606 PUSH1 0x0 SHL PUSH2 0x229 JUMP JUMPDEST PUSH2 0xFB PUSH32 0x3BCEA2A397F04E14FE9516E76495F43E7BCF924FDFD249668C0374F39D09E92E PUSH1 0x0 SHL PUSH2 0x229 JUMP JUMPDEST PUSH1 0x0 DUP1 SLOAD PUSH2 0x108 SWAP1 PUSH2 0x54B JUMP JUMPDEST DUP1 PUSH1 0x1F ADD PUSH1 0x20 DUP1 SWAP2 DIV MUL PUSH1 0x20 ADD PUSH1 0x40 MLOAD SWAP1 DUP2 ADD PUSH1 0x40 MSTORE DUP1 SWAP3 SWAP2 SWAP1 DUP2 DUP2 MSTORE PUSH1 0x20 ADD DUP3 DUP1 SLOAD PUSH2 0x134 SWAP1 PUSH2 0x54B JUMP JUMPDEST DUP1 ISZERO PUSH2 0x181 JUMPI DUP1 PUSH1 0x1F LT PUSH2 0x156 JUMPI PUSH2 0x100 DUP1 DUP4 SLOAD DIV MUL DUP4 MSTORE SWAP2 PUSH1 0x20 ADD SWAP2 PUSH2 0x181 JUMP JUMPDEST DUP3 ADD SWAP2 SWAP1 PUSH1 0x0 MSTORE PUSH1 0x20 PUSH1 0x0 KECCAK256 SWAP1 JUMPDEST DUP2 SLOAD DUP2 MSTORE SWAP1 PUSH1 0x1 ADD SWAP1 PUSH1 0x20 ADD DUP1 DUP4 GT PUSH2 0x164 JUMPI DUP3 SWAP1 SUB PUSH1 0x1F AND DUP3 ADD SWAP2 JUMPDEST POP POP POP POP POP SWAP1 POP SWAP1 JUMP JUMPDEST PUSH2 0x1B7 PUSH32 0xD0F4262543F36652BB09A98490A740A11F39D5F5AA94213499870BE5B0A44782 PUSH1 0x0 SHL PUSH2 0x229 JUMP JUMPDEST PUSH2 0x1E3 PUSH32 0x635222E40B4C535A57F55AF7D7366BCC034AF7DAA05A13DE5E3009A4D5AF2223 PUSH1 0x0 SHL PUSH2 0x229 JUMP JUMPDEST PUSH2 0x20F PUSH32 0x9BFA6C06D4C4F11C3ADA763F6A2DBAA0897B152378462D551AA57DA4ED803DE7 PUSH1 0x0 SHL PUSH2 0x229 JUMP JUMPDEST DUP1 PUSH1 0x0 SWAP1 DUP1 MLOAD SWAP1 PUSH1 0x20 ADD SWAP1 PUSH2 0x225 SWAP3 SWAP2 SWAP1 PUSH2 0x22C JUMP JUMPDEST POP POP JUMP JUMPDEST POP JUMP JUMPDEST DUP3 DUP1 SLOAD PUSH2 0x238 SWAP1 PUSH2 0x54B JUMP JUMPDEST SWAP1 PUSH1 0x0 MSTORE PUSH1 0x20 PUSH1 0x0 KECCAK256 SWAP1 PUSH1 0x1F ADD PUSH1 0x20 SWAP1 DIV DUP2 ADD SWAP3 DUP3 PUSH2 0x25A JUMPI PUSH1 0x0 DUP6 SSTORE PUSH2 0x2A1 JUMP JUMPDEST DUP3 PUSH1 0x1F LT PUSH2 0x273 JUMPI DUP1 MLOAD PUSH1 0xFF NOT AND DUP4 DUP1 ADD OR DUP6 SSTORE PUSH2 0x2A1 JUMP JUMPDEST DUP3 DUP1 ADD PUSH1 0x1 ADD DUP6 SSTORE DUP3 ISZERO PUSH2 0x2A1 JUMPI SWAP2 DUP3 ADD JUMPDEST DUP3 DUP2 GT ISZERO PUSH2 0x2A0 JUMPI DUP3 MLOAD DUP3 SSTORE SWAP2 PUSH1 0x20 ADD SWAP2 SWAP1 PUSH1 0x1 ADD SWAP1 PUSH2 0x285 JUMP JUMPDEST JUMPDEST POP SWAP1 POP PUSH2 0x2AE SWAP2 SWAP1 PUSH2 0x2B2 JUMP JUMPDEST POP SWAP1 JUMP JUMPDEST JUMPDEST DUP1 DUP3 GT ISZERO PUSH2 0x2CB JUMPI PUSH1 0x0 DUP2 PUSH1 0x0 SWAP1 SSTORE POP PUSH1 0x1 ADD PUSH2 0x2B3 JUMP JUMPDEST POP SWAP1 JUMP JUMPDEST PUSH1 0x0 DUP2 MLOAD SWAP1 POP SWAP2 SWAP1 POP JUMP JUMPDEST PUSH1 0x0 DUP3 DUP3 MSTORE PUSH1 0x20 DUP3 ADD SWAP1 POP SWAP3 SWAP2 POP POP JUMP JUMPDEST PUSH1 0x0 JUMPDEST DUP4 DUP2 LT ISZERO PUSH2 0x309 JUMPI DUP1 DUP3 ADD MLOAD DUP2 DUP5 ADD MSTORE PUSH1 0x20 DUP2 ADD SWAP1 POP PUSH2 0x2EE JUMP JUMPDEST DUP4 DUP2 GT ISZERO PUSH2 0x318 JUMPI PUSH1 0x0 DUP5 DUP5 ADD MSTORE JUMPDEST POP POP POP POP JUMP JUMPDEST PUSH1 0x0 PUSH1 0x1F NOT PUSH1 0x1F DUP4 ADD AND SWAP1 POP SWAP2 SWAP1 POP JUMP JUMPDEST PUSH1 0x0 PUSH2 0x33A DUP3 PUSH2 0x2CF JUMP JUMPDEST PUSH2 0x344 DUP2 DUP6 PUSH2 0x2DA JUMP JUMPDEST SWAP4 POP PUSH2 0x354 DUP2 DUP6 PUSH1 0x20 DUP7 ADD PUSH2 0x2EB JUMP JUMPDEST PUSH2 0x35D DUP2 PUSH2 0x31E JUMP JUMPDEST DUP5 ADD SWAP2 POP POP SWAP3 SWAP2 POP POP JUMP JUMPDEST PUSH1 0x0 PUSH1 0x20 DUP3 ADD SWAP1 POP DUP2 DUP2 SUB PUSH1 0x0 DUP4 ADD MSTORE PUSH2 0x382 DUP2 DUP5 PUSH2 0x32F JUMP JUMPDEST SWAP1 POP SWAP3 SWAP2 POP POP JUMP JUMPDEST PUSH1 0x0 PUSH1 0x40 MLOAD SWAP1 POP SWAP1 JUMP JUMPDEST PUSH1 0x0 DUP1 REVERT JUMPDEST PUSH1 0x0 DUP1 REVERT JUMPDEST PUSH1 0x0 DUP1 REVERT JUMPDEST PUSH1 0x0 DUP1 REVERT JUMPDEST PUSH32 0x4E487B7100000000000000000000000000000000000000000000000000000000 PUSH1 0x0 MSTORE PUSH1 0x41 PUSH1 0x4 MSTORE PUSH1 0x24 PUSH1 0x0 REVERT JUMPDEST PUSH2 0x3E0 DUP3 PUSH2 0x31E JUMP JUMPDEST DUP2 ADD DUP2 DUP2 LT PUSH8 0xFFFFFFFFFFFFFFFF DUP3 GT OR ISZERO PUSH2 0x3FF JUMPI PUSH2 0x3FE PUSH2 0x3A8 JUMP JUMPDEST JUMPDEST DUP1 PUSH1 0x40 MSTORE POP POP POP JUMP JUMPDEST PUSH1 0x0 PUSH2 0x412 PUSH2 0x38A JUMP JUMPDEST SWAP1 POP PUSH2 0x41E DUP3 DUP3 PUSH2 0x3D7 JUMP JUMPDEST SWAP2 SWAP1 POP JUMP JUMPDEST PUSH1 0x0 PUSH8 0xFFFFFFFFFFFFFFFF DUP3 GT ISZERO PUSH2 0x43E JUMPI PUSH2 0x43D PUSH2 0x3A8 JUMP JUMPDEST JUMPDEST PUSH2 0x447 DUP3 PUSH2 0x31E JUMP JUMPDEST SWAP1 POP PUSH1 0x20 DUP2 ADD SWAP1 POP SWAP2 SWAP1 POP JUMP JUMPDEST DUP3 DUP2 DUP4 CALLDATACOPY PUSH1 0x0 DUP4 DUP4 ADD MSTORE POP POP POP JUMP JUMPDEST PUSH1 0x0 PUSH2 0x476 PUSH2 0x471 DUP5 PUSH2 0x423 JUMP JUMPDEST PUSH2 0x408 JUMP JUMPDEST SWAP1 POP DUP3 DUP2 MSTORE PUSH1 0x20 DUP2 ADD DUP5 DUP5 DUP5 ADD GT ISZERO PUSH2 0x492 JUMPI PUSH2 0x491 PUSH2 0x3A3 JUMP JUMPDEST JUMPDEST PUSH2 0x49D DUP5 DUP3 DUP6 PUSH2 0x454 JUMP JUMPDEST POP SWAP4 SWAP3 POP POP POP JUMP JUMPDEST PUSH1 0x0 DUP3 PUSH1 0x1F DUP4 ADD SLT PUSH2 0x4BA JUMPI PUSH2 0x4B9 PUSH2 0x39E JUMP JUMPDEST JUMPDEST DUP2 CALLDATALOAD PUSH2 0x4CA DUP5 DUP3 PUSH1 0x20 DUP7 ADD PUSH2 0x463 JUMP JUMPDEST SWAP2 POP POP SWAP3 SWAP2 POP POP JUMP JUMPDEST PUSH1 0x0 PUSH1 0x20 DUP3 DUP5 SUB SLT ISZERO PUSH2 0x4E9 JUMPI PUSH2 0x4E8 PUSH2 0x394 JUMP JUMPDEST JUMPDEST PUSH1 0x0 DUP3 ADD CALLDATALOAD PUSH8 0xFFFFFFFFFFFFFFFF DUP2 GT ISZERO PUSH2 0x507 JUMPI PUSH2 0x506 PUSH2 0x399 JUMP JUMPDEST JUMPDEST PUSH2 0x513 DUP5 DUP3 DUP6 ADD PUSH2 0x4A5 JUMP JUMPDEST SWAP2 POP POP SWAP3 SWAP2 POP POP JUMP JUMPDEST PUSH32 0x4E487B7100000000000000000000000000000000000000000000000000000000 PUSH1 0x0 MSTORE PUSH1 0x22 PUSH1 0x4 MSTORE PUSH1 0x24 PUSH1 0x0 REVERT JUMPDEST PUSH1 0x0 PUSH1 0x2 DUP3 DIV SWAP1 POP PUSH1 0x1 DUP3 AND DUP1 PUSH2 0x563 JUMPI PUSH1 0x7F DUP3 AND SWAP2 POP JUMPDEST PUSH1 0x20 DUP3 LT DUP2 EQ ISZERO PUSH2 0x577 JUMPI PUSH2 0x576 PUSH2 0x51C JUMP JUMPDEST JUMPDEST POP SWAP2 SWAP1 POP JUMP INVALID LOG2 PUSH5 0x6970667358 0x22 SLT KECCAK256 0xE8 0xB4 SELFDESTRUCT 0xBE PUSH24 0x9546BBFFC4AE1BAF2EEB54305295C5A746B4B63FE33FD04F PUSH10 0x236664736F6C63430008 MULMOD STOP CALLER "
        },
        "methodIdentifiers": {
          "changeName(string)": "5353a2d8",
          "getName()": "17d7de7c"
        }
      }
    }
  }
}