{
  "_format": "hh-sol-artifact-1",
  "contractName": "MyContract",
  "sourceName": "contracts/MyContract.sol",
  "abi": [
    {
      "inputs": [
        {
          "internalType": "string",
          "name": "_name",
          "type": "string"
        }
      ],
      "stateMutability": "nonpayable",
      "type": "constructor"
    },
    {
      "inputs": [
        {
          "internalType": "string",
          "name": "_name",
          "type": "string"
        }
      ],
      "name": "changeName",
      "outputs": [],
      "stateMutability": "nonpayable",
      "type": "function"
    },
    {
      "inputs": [],
      "name": "getName",
      "outputs": [
        {
          "internalType": "string",
          "name": "",
          "type": "string"
        }
      ],
      "stateMutability": "view",
      "type": "function"
    }
  ],
  "bytecode": "0x60806040523480156200001157600080fd5b50604051620009bc380380620009bc833981810160405281019062000037919062000343565b6200006b7fe3edaab583b6fc2562c5ac310d7b0f82e5ed87cf85161ca7893d3f50884b285c60001b620000f360201b60201c565b6200009f7fa6ce600d6bf2721d7a6c78f323b14ce0283fd3bc85f8da6cca2715730259c7bf60001b620000f360201b60201c565b620000d37fe25b45a4f28c5a5d1eb45f2a85aa2e04cf1d82ad8e4a2ed1e143fd4125560fbf60001b620000f360201b60201c565b8060009080519060200190620000eb929190620000f6565b5050620003f9565b50565b8280546200010490620003c3565b90600052602060002090601f01602090048101928262000128576000855562000174565b82601f106200014357805160ff191683800117855562000174565b8280016001018555821562000174579182015b828111156200017357825182559160200191906001019062000156565b5b50905062000183919062000187565b5090565b5b80821115620001a257600081600090555060010162000188565b5090565b6000604051905090565b600080fd5b600080fd5b600080fd5b600080fd5b6000601f19601f8301169050919050565b7f4e487b7100000000000000000000000000000000000000000000000000000000600052604160045260246000fd5b6200020f82620001c4565b810181811067ffffffffffffffff82111715620002315762000230620001d5565b5b80604052505050565b600062000246620001a6565b905062000254828262000204565b919050565b600067ffffffffffffffff821115620002775762000276620001d5565b5b6200028282620001c4565b9050602081019050919050565b60005b83811015620002af57808201518184015260208101905062000292565b83811115620002bf576000848401525b50505050565b6000620002dc620002d68462000259565b6200023a565b905082815260208101848484011115620002fb57620002fa620001bf565b5b620003088482856200028f565b509392505050565b600082601f830112620003285762000327620001ba565b5b81516200033a848260208601620002c5565b91505092915050565b6000602082840312156200035c576200035b620001b0565b5b600082015167ffffffffffffffff8111156200037d576200037c620001b5565b5b6200038b8482850162000310565b91505092915050565b7f4e487b7100000000000000000000000000000000000000000000000000000000600052602260045260246000fd5b60006002820490506001821680620003dc57607f821691505b60208210811415620003f357620003f262000394565b5b50919050565b6105b380620004096000396000f3fe608060405234801561001057600080fd5b50600436106100365760003560e01c806317d7de7c1461003b5780635353a2d814610059575b600080fd5b610043610075565b6040516100509190610368565b60405180910390f35b610073600480360381019061006e91906104d3565b61018b565b005b60606100a37f3eaede775cdfb112666232fb37e21f174044897685583597bbba050f5b6d3f6860001b610229565b6100cf7fdebeb5d842deaa5a99eb711cca8174c1627aa1414f934a1dd2956c7b30a2d60660001b610229565b6100fb7f3bcea2a397f04e14fe9516e76495f43e7bcf924fdfd249668c0374f39d09e92e60001b610229565b600080546101089061054b565b80601f01602080910402602001604051908101604052809291908181526020018280546101349061054b565b80156101815780601f1061015657610100808354040283529160200191610181565b820191906000526020600020905b81548152906001019060200180831161016457829003601f168201915b5050505050905090565b6101b77fd0f4262543f36652bb09a98490a740a11f39d5f5aa94213499870be5b0a4478260001b610229565b6101e37f635222e40b4c535a57f55af7d7366bcc034af7daa05a13de5e3009a4d5af222360001b610229565b61020f7f9bfa6c06d4c4f11c3ada763f6a2dbaa0897b152378462d551aa57da4ed803de760001b610229565b806000908051906020019061022592919061022c565b5050565b50565b8280546102389061054b565b90600052602060002090601f01602090048101928261025a57600085556102a1565b82601f1061027357805160ff19168380011785556102a1565b828001600101855582156102a1579182015b828111156102a0578251825591602001919060010190610285565b5b5090506102ae91906102b2565b5090565b5b808211156102cb5760008160009055506001016102b3565b5090565b600081519050919050565b600082825260208201905092915050565b60005b838110156103095780820151818401526020810190506102ee565b83811115610318576000848401525b50505050565b6000601f19601f8301169050919050565b600061033a826102cf565b61034481856102da565b93506103548185602086016102eb565b61035d8161031e565b840191505092915050565b60006020820190508181036000830152610382818461032f565b905092915050565b6000604051905090565b600080fd5b600080fd5b600080fd5b600080fd5b7f4e487b7100000000000000000000000000000000000000000000000000000000600052604160045260246000fd5b6103e08261031e565b810181811067ffffffffffffffff821117156103ff576103fe6103a8565b5b80604052505050565b600061041261038a565b905061041e82826103d7565b919050565b600067ffffffffffffffff82111561043e5761043d6103a8565b5b6104478261031e565b9050602081019050919050565b82818337600083830152505050565b600061047661047184610423565b610408565b905082815260208101848484011115610492576104916103a3565b5b61049d848285610454565b509392505050565b600082601f8301126104ba576104b961039e565b5b81356104ca848260208601610463565b91505092915050565b6000602082840312156104e9576104e8610394565b5b600082013567ffffffffffffffff81111561050757610506610399565b5b610513848285016104a5565b91505092915050565b7f4e487b7100000000000000000000000000000000000000000000000000000000600052602260045260246000fd5b6000600282049050600182168061056357607f821691505b602082108114156105775761057661051c565b5b5091905056fea2646970667358221220e8b4ffbe779546bbffc4ae1baf2eeb54305295c5a746b4b63fe33fd04f69236664736f6c63430008090033",
  "linkReferences": {},
  "deployedLinkReferences": {}
}